:020000020000FC
:100000000CE30AB920982198259A0F9305E005BDC5
:100010000F91A0E0B1E0F5E00F9303B101FB20E008
:1000200020F903B100FB30E030F909B107FB40E0F3
:1000300040F909B106FB50E050F90F91622F732F80
:10004000842F952F9B27842F85232F932B27822363
:100050002F91CF93C22FC3275F935B27C5235F9157
:100060004F934B27C4234F918C2BCF91722F5F93CB
:100070005B2775235F91CF93C32FC5237C2BCF9133
:10008000CF93C42FC3237C2BCF91CF932F932B27B8
:10009000C22F2F913F933B27C3233F914F934B2771
:1000A000C4234F915F935B27C5235F916C2FCF9142
:1000B000CF93C22FC5236C2BCF9105E0E62F22D022
:1000C0006E2F04E0E72F1ED07E2F03E0E82F1AD01A
:1000D0008E2F02E0E92F16D09E2F10E0160F170F7B
:1000E000180F190F1BB92D9A0F930DE30FD00F9115
:1000F0002D980F930DE30AD00F918ECFFFCF8CCFA9
:1001000000E00895EE0F0A95E9F70895FF93F5B31F
:10011000BF93B2E0FB23BF91FF91C1F3BF93B2E065
:0C012000B5BBBF910A9591F70DE308955F
:00000001FF
