:020000020000FC
:100000000CE30AB920982198259A0F9305E005BDC5
:100010000F91A0E0B1E0F5E00F9303B101FB20E008
:1000200020F903B100FB30E030F909B107FB40E0F3
:1000300040F909B106FB50E050F90F91622F732F80
:10004000842F952F9B278B2785232F932B27822364
:100050002F91CF93C42F5F935B27C5235F918C2B88
:10006000CF91732F4F934B2774234F91CF93C32F6F
:100070005F935B27C5235F917C2BCF91CF93C52FD7
:10008000C4233F933B27C3233F917C2BCF915F93A6
:100090005B2765235F91CF93C32FC423C5236C2BAC
:1000A000CF9105E0E62F22D06E2F04E0E72F1ED07F
:1000B0007E2F03E0E82F1AD08E2F02E0E92F16D012
:1000C0009E2F10E0160F170F180F190F1BB92D9A3E
:1000D0000F930DE30FD00F912D980F930DE30AD0DE
:1000E0000F919ACFFFCF98CF00E00895EE0F0A95B9
:1000F000E9F70895FF93F5B3BF93B2E0FB23BF91F7
:10010000FF91C1F3BF93B2E0B5BBBF910A9591F7E0
:040110000DE308955E
:00000001FF
