:100000000C9434000C943E000C943E000C943E0082
:100010000C943E000C943E000C943E000C943E0068
:100020000C943E000C943E000C943E000C943E0058
:100030000C943E000C943E000C943E000C943E0048
:100040000C943E000C943E000C943E000C943E0038
:100050000C943E000C943E000C943E000C943E0028
:100060000C943E000C943E0011241FBECFEFD8E04C
:10007000DEBFCDBF0E9447000C94AB000C94000083
:10008000019720F0AA9BFECFAA9AFACF0895529A20
:10009000539A549A559A5698579820982198259A89
:1000A00085E085BDB1E0C1E059B1F52FF295F69537
:1000B000F695F370AF2FA17069B1661F6627661FB2
:1000C00033B1932F917023B1522F5695252F217064
:1000D000422F4C27762F7C278A2F8C27E92FEC275D
:1000E000E723E423B13091F0352773237823362FAB
:1000F0003A234323372F342B6F2B69232823962F42
:10010000922B5F2351708E23852B03C080E090E0FB
:1001100030E02BB1237C2BB92BB12BB92BB1330F92
:10012000330F330F322B3BB92BB19295907F922B2B
:100130009BB99BB18295880F807E892B8BB98DE30B
:1001400090E00E9440002D9A8DE390E00E944000D4
:0A0150002D98B0E0A9CFF894FFCF7E
:00000001FF
