:100000000C9434000C943E000C943E000C943E0082
:100010000C943E000C943E000C943E000C943E0068
:100020000C943E000C943E000C943E000C943E0058
:100030000C943E000C943E000C943E000C943E0048
:100040000C943E000C943E000C943E000C943E0038
:100050000C943E000C943E000C943E000C943E0028
:100060000C943E000C943E0011241FBECFEFD8E04C
:10007000DEBFCDBF0E9440000C949B000C9400009A
:10008000529A539A549A559A56985798209821986C
:10009000259A71E029B126FB222720F989B1881F12
:1000A0008827881F93B1592F517033B131FB6627D0
:1000B00060F9322F3727482F4727922F9823EBB12B
:1000C000F32FFF0FFF0FEF2BEBB9EBB12423F62F2C
:1000D000F7272F238323822B880F880F880F8E2BDF
:1000E0008BB9EBB1832F842B8523252F2727292339
:1000F000822B8295807F8E2B8BB98BB136239523F3
:10010000932B9295990F907E982B9BB92FEF89E6B0
:1001100098E1215080409040E1F700C000002D9A06
:100120002FEF89E698E1215080409040E1F700C030
:0A01300000002D98AFCFF894FFCF28
:00000001FF
