:100000000C9434000C943E000C943E000C943E0082
:100010000C943E000C943E000C943E000C943E0068
:100020000C943E000C943E000C943E000C943E0058
:100030000C943E000C943E000C943E000C943E0048
:100040000C943E000C943E000C943E000C943E0038
:100050000C943E000C943E000C943E000C943E0028
:100060000C943E000C943E0011241FBECFEFD8E04C
:10007000DEBFCDBF0E9440000C94A4000C94000091
:10008000529A539A549A559A56985798209821986C
:10009000259A71E089B141E0682F607486FF40E0E5
:1000A00089B1982F991F9927991F23B1217053B1B6
:1000B000527031E0611130E08095881F8827881FD9
:1000C000F42FF9236BB1E32FEE0FEE0F6E2B6BB90C
:1000D000EBB1482361E0511160E046239323942B58
:1000E000990F990F990F9E2B9BB94BB1622F6727E0
:1000F0006F23982F932B9223862F892B8295807FB5
:10010000842B8BB98BB191E0511101C090E0392360
:100110002F23232B2295220F207E282B2BB92FEF64
:1001200089E698E1215080409040E1F700C000004E
:100130002D9A2FEF89E698E1215080409040E1F719
:0C01400000C000002D98A6CFF894FFCF5F
:00000001FF
