:100000000C94D3000C94F0000C94F0000C94F000CD
:100010000C94F0000C94F0000C94F0000C94F000A0
:100020000C94F0000C94F0000C94F0000C94E70B8E
:100030000C94F0000C94F0000C94F0000C94F00080
:100040000C94F0000C94F0000C94F0000C94F00070
:100050000C94F0000C94F0000C94F0000C94F00060
:100060000C94F0000C94F0006E616E00696E6600F6
:1000700000407A10F35A00A0724E18090010A5D45F
:10008000E80000E87648170000E40B54020000CABC
:100090009A3B000000E1F505000080969800000002
:1000A00040420F000000A086010000001027000061
:1000B0000000E803000000006400000000000A00E7
:1000C000000000000100000000002C76D888DC67EA
:1000D0004F0823DFC1DFAE59E1B1B796E5E3E45342
:1000E000C63AE651997696E8E6C28426EB898C9B5F
:1000F00062ED407C6FFCEFBC9C9F40F2BAA56FA5FF
:10010000F490055A2AF75C936B6CF9676DC11BFC80
:10011000E0E40D47FEF520E6B500D0ED902E03009B
:10012000943577050080841E080000204E0A0000E8
:1001300000C80C333333330F986E12831141EF8DA7
:100140002114893BE65516CFFEE6DB18D1844B38E7
:100150001BF77C1D901DA4BBE424203284725E2218
:100160008100C9F124ECA1E53D274E414E494E499D
:100170005459494E46CDCCCC3D0AD7233C17B7D174
:100180003877CC2B329595E6241FB14F0A0000201A
:10019000410000C84200401C4620BCBE4CCA1B0E99
:1001A0005AAEC59D740011241FBECFEFD8E0DEBF4C
:1001B000CDBF22E0A4E4B2E001C01D92AE35B2078B
:1001C000E1F712E0A0E0B1E0EAE9FEE202C005904A
:1001D0000D92A434B107D9F70E940C0C0C944B1764
:1001E0000C9400000F931F93AB01BC018FB7F894E0
:1001F0000091460210914702209148023091490235
:100200008FBFEFB7F8948091460290914702A0917A
:100210004802B0914902EFBF801B910BA20BB30BB8
:1002200084179507A607B70760F31F910F910895EC
:10023000CF93DF93E9019B01AC010E94E51420E01C
:1002400030E040E85FE30E94C1159B01AC0160E033
:1002500070E080E89FE30E942D16688379838A838B
:100260009B83DF91CF910895CF93DF93E9019B01A9
:10027000AC0160E070E080E89FE30E942D16688387
:1002800079838A839B83DF91CF910895FA018081DE
:100290009181A281B381F90180839183A283B38389
:1002A0000895EF92FF920F931F93CF93DF937A01FC
:1002B000E9019B01AC01F801608171818281938128
:1002C0000E942D16F70120813181428153810E94C5
:1002D000E514688379838A839B83DF91CF911F9193
:1002E0000F91FF90EF900895FC01E056FF4F2081A1
:1002F0003181273231057CF42F5F3F4F31832083DA
:10030000220F331F220F331F280F391FF90140839B
:1003100051836283738308958F929F92AF92BF92AD
:10032000CF92DF92EF92FF926B017C0120E030E0F0
:1003300040E85FE30E94C0154B015C0120E030E023
:1003400040E85FE30E947F1420E030E040E85FE394
:10035000181634F4C501B4010E948C019B01AC0154
:10036000C701B6010E94E514FF90EF90DF90CF9097
:10037000BF90AF909F908F900895FA0184819581EE
:10038000A681B781F90180839183A283B383FA01A7
:1003900080819181A281B381B058F90184839583D2
:1003A000A683B78308952F923F924F925F926F92E8
:1003B0007F928F929F92AF92BF92CF92DF92EF92F5
:1003C000FF920F931F93CF93DF93CDB7DEB7C25544
:1003D000D1090FB6F894DEBF0FBECDBF2B013C0193
:1003E00025962CAF3DAF4EAF5FAF25971801FCA609
:1003F000EBA6DEA6CDA6B8AAAFA6AC019B012596BA
:100400006CAD7DAD8EAD9FAD25970E94C0156B0183
:100410007C0120E030E0A9010E947F1487FF49C0E1
:10042000C701B60190582AE037ED43E25CE30E9431
:100430002D160E949F167CAF6BAF20E030E0A90123
:10044000C701B6010E947F149AE0C92E97EDD92EFC
:1004500093E2E92E9CE3F92E87FF08C08AE0C82EBC
:1004600087EDD82E83E2E82E8CEBF82E1AA619A67B
:1004700049A55AA58BAD9CAD84179507ECF4CE5ACF
:10048000DF4F0FB6F894DEBF0FBECDBFDF91CF9127
:100490001F910F91FF90EF90DF90CF90BF90AF90A2
:1004A0009F908F907F906F905F904F903F902F9094
:1004B0000895C701B601B7CF29A53AA54BAD5CADEC
:1004C00024173507F1F4A301920125966CAD7DAD9B
:1004D0008EAD9FAD25970E94C0156B017C0120E079
:1004E00030E0A9010E947F1487FFA0C1C701B601B7
:1004F00090582FE530E749E850E30E947F1487FDCC
:10050000BECF0FA518A99E012F5F3F4FA101C301C8
:10051000B201EDA5FEA5099529813A814B815C8147
:10052000C701B6010E94E51420E030E040E05FE33F
:100530000E94E514D1012D913D914D915C910E9455
:10054000C11569A37AA38BA39CA3EBA5FCA5329745
:10055000D9F42D813E814F815885C701B6010E9493
:10056000E51420E030E040E05FE30E94E514D101B3
:1005700014962D913D914D915C9117970E94C11554
:100580006DA37EA38FA398A720E030E040E05FE357
:10059000C701B6010E94E514A30192010E94C11592
:1005A0004B015C010FA518A99E01275F3F4FAE01CB
:1005B0004F5D5F4FEDA5FEA5099529853A854B85D1
:1005C0005C85C701B6010E94E51420E030E040E000
:1005D0005FE30E94E514D1012D913D914D915C9115
:1005E0000E94C11569A37AA38BA39CA3EBA5FCA5CC
:1005F0003297D9F42D853E854F855889C701B601BC
:100600000E94E51420E030E040E05FE30E94E51442
:10061000D10114962D913D914D915C9117970E94B7
:10062000C1156DA37EA38FA398A70FA518A99E013E
:100630002F5E3F4FAE014F5D5F4FC501B401EDA589
:10064000FEA5099529893A894B895C89C701B601BC
:100650000E94E514D1012D913D914D915C910E9434
:10066000C11569A37AA38BA39CA3EBA5FCA5329724
:10067000A9F42D893E894F89588DC701B6010E9482
:10068000E514D10114962D913D914D915C911797F0
:100690000E94C1156DA37EA38FA398A7A701960101
:1006A000C301B2010E94C1152B013C010FA518A97D
:1006B0009E01275E3F4FAE014F5D5F4FEDA5FEA54A
:1006C000099520E030E040EC50E4C701B6010E94FB
:1006D0002D162D966CAF7DAF8EAF9FAF2D973AAA9A
:1006E00029AA9E012F5F3F4F3AAF29AFAE01475F66
:1006F0005F4F5EAF4DAFCE01419621969FAF8EAF5B
:100700002197DE015996B8AFAFAB10E000E0A9A980
:10071000BAA92D913D914D915D91BAABA9AB2996A6
:100720002CAF3DAF4EAF5FAF2997A9ADBAAD2D91BC
:100730003D914D915D91BAAFA9AF2BAB3CAB4DABA9
:100740005EABEDADFEAD6191719181919191FEAF86
:10075000EDAF2196AEADBFAD21978D909D90AD9040
:10076000BD902196BFAFAEAF2197AFA9B8AD2D9187
:100770003D914D915D91B8AFAFAB61962CAF3DAF60
:100780004EAF5FAF6197E9A9FAA934976396FFAFBF
:10079000EEAF63979B01AC010E94C1152BA93CA948
:1007A0004DA95EA90E94C1156BAB7CAB8DAB9EAB16
:1007B000A5019401C501B4010E94C1159B01AC01C2
:1007C0006BA97CA98DA99EA90E94C11561962CAD2B
:1007D0003DAD4EAD5FAD61970E94C1152D962CAD1C
:1007E0003DAD4EAD5FAD2D970E94E51429962CAD21
:1007F0003DAD4EAD5FAD29970E94C1156396AEAD7C
:10080000BFAD63976D937D938D939C9313970F5F0B
:100810001F4FEBA5FCA5E017F10709F078CF29A53C
:100820003AA52F5F3F4F3AA729A722CEC701B601AD
:1008300060CEAF92BF92CF92DF92EF92FF920F9372
:100840001F93CF93DF93CDB7DEB728970FB6F894F9
:10085000DEBF0FBECDBF9B01AC0119821A821B8285
:100860001C8280E090E0A0E8BFE38D839E83AF838D
:10087000B887B12CA12C8DEBC82E81E0D82E92E048
:10088000E92EF12C8E010F5F1F4F60E070E0CB016D
:100890000E94D30169817A818B819C8128960FB651
:1008A000F894DEBF0FBECDBFDF91CF911F910F91A6
:1008B000FF90EF90DF90CF90BF90AF9008958F9210
:1008C0009F92AF92BF92CF92DF92EF92FF920F93DF
:1008D0001F93CF93DF9300D000D0CDB7DEB76B016D
:1008E0007C0120E030E0A9010E947F1487FF23C033
:1008F000C701B601905820E030E040E85FE30E9475
:10090000D5161816DCF420E030E0A901CA01B901BF
:100910000E942D160F900F900F900F90DF91CF91A6
:100920001F910F91FF90EF90DF90CF90BF90AF900D
:100930009F908F900895C701B601DDCF20E030E091
:1009400040E85FE3C701B6010E94C0154B015C019E
:1009500020E030E0A9010E947F1487FF04C0B7FAAD
:10096000B094B7F8B0942FE530E749E850E3C501FB
:10097000B4010E947F1418160CF07AC020E030E019
:1009800040E85FE3C701B6010E94C1154B015C015D
:1009900020E030E0A9010E947F1487FF04C0B7FA6D
:1009A000B094B7F8B0942FE530E749E850E3C501BB
:1009B000B4010E947F1418160CF05FC0A7019601C5
:1009C000C701B6010E94E5149B01AC0160E070E034
:1009D00080E89FE30E94C0158B019C013595279507
:1009E000179507955FED852E59E5952E57E3A52EB2
:1009F0005FE5B52E801A910AA20AB30A19821A82FB
:100A00001B821C8220E030E040E05FE30E94E5149E
:100A1000A50194010E94E514A50194010E94E5142A
:100A20009B01AC0160E070E080EC9FE30E94C01588
:100A3000A50194010E94E514A70196010E94E51406
:100A40009B01AC01B12CA12C68E1C62E61E0D62E31
:100A5000EE24E394F12C8E010F5F1F4F60E070E0F5
:100A6000CB010E94D30169817A818B819C8152CF15
:100A70006BED7FE089EC9FE34DCF6BED7FE089EC80
:100A80009FEB48CFCF93DF93EC0163E871E00E94C6
:100A90001817892B09F458C068E871E0CE010E944C
:100AA0001817892B09F450C06DE871E0CE010E943F
:100AB0001817892B09F448C06BE671E0CE010E943B
:100AC0001817892B09F440C06EE671E0CE010E9430
:100AD0001817892BC9F163E771E0CE010E9418173E
:100AE000892B91F168E771E0CE010E941817892BDC
:100AF00059F16CE771E0CE010E941817892B21F1A2
:100B000062E871E0CE010E941817892BE9F067E8CE
:100B100071E0CE010E941817892BB1F06CE871E0EA
:100B2000CE010E941817892B79F061E971E0CE019E
:100B30000E94181731E020E0892B09F030E0832F64
:100B4000922FDF91CF91089581E090E0FACFCF937B
:100B5000DF93EC0168EA71E00E941817892B41F1DC
:100B600065E971E0CE010E941817892B21F167E930
:100B700071E0CE010E941817892B01F169E971E03B
:100B8000CE010E941817892BC9F06BE971E0CE01E4
:100B90000E941817892BA9F06DE971E0CE010E941F
:100BA0001817892B71F090E080E0DF91CF910895C4
:100BB00085E090E0FACF84E090E0F7CF83E090E02A
:100BC000F4CF82E090E0F1CF2F923F924F925F926C
:100BD0006F927F928F929F92AF92BF92CF92DF924D
:100BE000EF92FF920F931F93CF93DF93CDB7DEB7B2
:100BF000C45BD1090FB6F894DEBF0FBECDBFC1559F
:100C0000DF4F79836883CF5AD040CF54DF4F28839A
:100C100039834A835B83C15BD0409E012F5F3F4F86
:100C2000390120EAD3011D922A95E9F7FE01EF551B
:100C3000FF4FC555DF4FF983E883CB5AD0402FEFE4
:100C40003FEFCF55DF4F39832883C15AD0404C0145
:100C5000C355DF4F19821882CD5AD040C355DF4F9C
:100C6000E881F981CD5AD040C155DF4F28813981C3
:100C7000CF5AD040E217F3076CF1CF55DF4F888190
:100C80009981C15AD04097FD1CC3880F991F880FC6
:100C9000991F680E791ED3016D917D918D919C9164
:100CA000CC54DF4F0FB6F894DEBF0FBECDBFDF913F
:100CB000CF911F910F91FF90EF90DF90CF90BF9059
:100CC000AF909F908F907F906F905F904F903F90EC
:100CD0002F900895D4012C91822F022E000C990B95
:100CE000C0970A9750F02D3271F411968C91082E0E
:100CF000000C990BC0970A9730F4C4010E9462114E
:100D0000AB01BC0116C06FE971E0C4010E94181765
:100D1000892B39F066E771E0C4010E941817892B0E
:100D2000E1F4CF54DF4F488159816A817B81C15BF7
:100D3000D040C3010E947401C355DF4FA881B9811F
:100D4000CD5AD0401196C355DF4FB983A883CD5AF1
:100D5000D040BAE08B0E911C81CF6BE971E0C401E9
:100D60000E9418176C0168EA71E0C4010E9418170C
:100D70007C01CD2809F453C06DE971E0C4010E94E3
:100D80001817892B09F44BC067E971E0C4010E9470
:100D90001817892B09F443C069E971E0C4010E9466
:100DA0001817892BE1F165E971E0C4010E94181759
:100DB000892BA9F1E114F10491F1C4010E944205CB
:100DC000892B09F4B9CFCF55DF4F88819981C15A5A
:100DD000D040212C312C210197FD14C09C012150C1
:100DE0003109CF55DF4F39832883C15AD040880F4E
:100DF000991F880F991FF301E80FF91F2080318098
:100E00004280538063E871E0C4010E941817892B67
:100E100009F0EFC0C201B1010E94190471CFCF5592
:100E2000DF4F88819981C15AD040EF2851F597FF53
:100E300005C040E050E060E87FE37BCF9C0121509B
:100E40003109CF55DF4F39832883C15AD040880FED
:100E5000991F880F991FF301E80FF91FC080D180F7
:100E6000E280F38020E030E040E85FE3C701B601B4
:100E70000E947F141816ECF6C701B6010E948C017F
:100E80003FCFC12CD12C760197FD14C09C0121507D
:100E90003109CF55DF4F39832883C15AD040880F9D
:100EA000991F880F991FF301E80FF91FC080D180A7
:100EB000E280F380CF55DF4F88819981C15AD040BD
:100EC000212C312C210197FD14C09C0121503109A6
:100ED000CF55DF4F39832883C15AD040880F991FDF
:100EE000880F991FF301E80FF91F2080318042809D
:100EF00053806BE971E0C4010E941817892B39F403
:100F0000A7019601C201B1010E94C115F9CE6DE998
:100F100071E0C4010E941817892B39F4A7019601CA
:100F2000C201B1010E94C015EBCE67E971E0C401B6
:100F30000E941817892B39F4A7019601C201B1014B
:100F40000E94E514DDCE69E971E0C4010E94181722
:100F5000892BA1F420E030E0A901C701B6010E946D
:100F60007F1440E050E0BA01882309F4E2CEA701E3
:100F70009601C201B1010E942D16C2CE65E971E051
:100F8000C4010E941817892B09F0D6CEC955DF4F2E
:100F9000C882D982EA82FB82C75AD04080E090E0C2
:100FA000A0E8BFE3CD55DF4F88839983AA83BB8335
:100FB000C35AD040DE01A955BF4F5D0101E5C02EE7
:100FC00001E0D02EEE24E394F12C8E010D551F4F3D
:100FD000A201910160E070E080E89FE30E94D301EC
:100FE000CD55DF4F488159816A817B81C35AD040FA
:100FF000A0CE68E871E0C4010E941817892B49F45B
:10100000A20191016BED7FE089EC9FE30E94C01586
:1010100003CF6DE871E0C4010E941817892BA9F471
:10102000C201B1010E9419046B017C01A20191016E
:101030006BED7FE089EC9FE30E94C0150E941904CC
:101040009B01AC01C701B60196CF6BE671E0C4010C
:101050000E941817892B01F520E030E0A901C20198
:10106000B1010E947F14181644F020E030E0A9017D
:1010700060E070E080E89FEB7ECFCD55DF4F1882B7
:1010800019821A821B82C35AD040B12CA12CB4E31E
:10109000CB2EB1E0DB2E96CF6EE671E0C4010E944C
:1010A0001817892B09F044C020E030E0A901C201E3
:1010B000B1010E947F1487FF06C020E030E0A90143
:1010C000CA01B90158CFD201C101B595A79597952D
:1010D0008795FFEDCF2EF9E5DF2EF7E3EF2EFFE545
:1010E000FF2EC81AD90AEA0AFB0A20E030E040E0E5
:1010F0005FE3C201B1010E94E514A70196010E94BD
:10110000E514A70196010E94E5149B01AC0160E083
:1011100070E080EC9FE30E94C015A70196010E9439
:10112000E5149B01AC0160E070E080E89FE323CF11
:1011300063E771E0C4010E941817892B71F420E065
:1011400030E040E85FE3C201B1010E947F1418164D
:101150000CF06FCEC201B10191CE68E771E0C4011D
:101160000E941817892BF1F480E090E0A0E8BFE31B
:10117000CD55DF4F88839983AA83BB83C35AD04060
:10118000B12CA12C76E4C72E71E0D72EEE24E39487
:10119000F12C8E010D551F4FA201910160E070E00E
:1011A000CB011CCF6CE771E0C4010E941817892B9A
:1011B000E1F520E030E0A901C201B1010E947F14F5
:1011C000181674F020E030E0A90160E070E080E8DB
:1011D0009FEB0E942D162EE83DE543E150E4CBCE77
:1011E000CD55DF4F188219821A821B82C35AD04014
:1011F000B12CA12C54E3C52E51E0D52EEE24E3945E
:10120000F12C8E010D551F4FA201910160E070E09D
:1012100080E89FE30E94D301CD55DF4F688179813B
:101220008A819B81C35AD040D6CF62E871E0C40165
:101230000E941817892B29F4C201B1010E945F0492
:101240005FCD67E871E0C4010E941817892B59F43B
:10125000C201B1010E945F049B01AC016BED7FE014
:1012600089EC9FE35FCE6CE871E0C4010E9418171F
:10127000892B79F4CD55DF4F188219821A821B828F
:10128000C35AD040B12CA12C48E1C42E41E0D42E49
:101290007DCF61E971E0C4010E941817892B09F024
:1012A0004BCD20E030E0A901C201B1010E947F14C2
:1012B00087FF04C057FA509457F85094B201A10127
:1012C00038CD60E070E0CB01EBCC2F923F924F9293
:1012D0005F926F927F928F929F92AF92BF92CF92C6
:1012E000DF92EF92FF920F931F93CF93DF93CDB7CF
:1012F000DEB7C256D4400FB6F894DEBF0FBECDBFE6
:101300001C015E012FEDA21A2CEFB20A82E491E0DB
:10131000F5019C01119221503040E1F78FEF9FEFD2
:10132000CF59DB4F99838883C156D4401AE4C12E2C
:1013300012E0D12E10E000E080E2882EF6019190BC
:101340006F01EE24E394F12CEC0EFD1EE00EF11E75
:10135000992029F00039F1E01F070CF453C0F70180
:1013600010826AEA71E0CE0101960E9449127C0166
:10137000D12CC12CE114F10409F069C046012AE026
:10138000722E6401CF59DB4F08811981C156D440B8
:101390000F3F100709F0A1C1F101108220E030E0F9
:1013A000A901B601CE018F569E4F0E94E4059F937E
:1013B0008F937F936F9380EB91E09F938F933F92F6
:1013C0002F920E9428170FB6F894DEBF0FBECDBF34
:1013D000CE59DB4F0FB6F894DEBF0FBECDBFDF9105
:1013E000CF911F910F91FF90EF90DF90CF90BF9022
:1013F000AF909F908F907F906F905F904F903F90B5
:101400002F900895692D092C000C770B81EA91E04B
:101410000E940D1798012F5F3F4FF701892BA9F00C
:10142000808281E090E08C0F9D1F280F391FF90109
:10143000908298012D5F3F4FE3E0F0E0EC0FFD1F3D
:10144000E00FF11F8082890179CF9082FCCFF701F4
:101450002081822F022E000C990BC0970A97B8F0BA
:101460002D3239F48181082E000C990BC0970A9710
:1014700070F06FE971E0C7010E941817892B39F0ED
:1014800066E771E0C7010E941817892B01F5F8E2A1
:10149000CF16D1040CF080CF86010F5F1F4F2AE0DA
:1014A0002C9DC0012D9D900D1124B701E1E9F1E0C3
:1014B000EC0FFD1F8E0F9F1F0E94211768016AEA23
:1014C00071E090E080E00E9449127C0153CFC70197
:1014D0000E944205892B39F46EE272E0C7010E9436
:1014E0001817892BD9F4CF59DB4F88819981C156C0
:1014F000D440873291051CF70196CF59DB4F998371
:101500008883C156D440A3E0880F991FAA95E1F7BC
:10151000B7018A0D9B1D0E942117D1CF6EEA71E0A1
:10152000C7010E9418173601892B09F09EC0760169
:101530006701CF59DB4F08811981C156D4400F3F55
:10154000100701F1EDEA8E2EE1E09E2E17FD08C096
:101550004801F3E0880C991CFA95E1F78A0C9B1C72
:101560006EE272E0C4010E941817892B09F044C092
:1015700017FD08C001501109CF59DB4F19830883AB
:10158000C156D440CF59DB4F08811981C156D44090
:101590000F3F100709F493CF6DEA862E61E0962E77
:1015A00017FD08C0480173E0880C991C7A95E1F793
:1015B0008A0C9B1CC4010E944205892B09F47FCF31
:1015C00017FD08C001501109CF59DB4F198308835B
:1015D000C156D4406701EFEFCE1ADE0AFAE0FE9D55
:1015E000C001FF9D900D1124B40121E931E02C0FC1
:1015F0003D1F820F931F8FCF17FD08C001501109A7
:10160000CF59DB4F19830883C156D440FAE0FE9DC1
:10161000C001FF9D900D1124B40121E931E02C0F90
:101620003D1F820F931F0E9421173FEFE31AF30A19
:101630007FCF17FD08C001501109CF59DB4F198327
:101640000883C156D4403AE0369DC001379D900DC5
:101650001124B201E1E9F1E0EC0FFD1F8E0F9F1F95
:101660000E942117FFEF6F1A7F0A6301CF59DB4FEA
:1016700008811981C156D4400F3F1007E1F04DEAAF
:10168000442E41E0542E17FD08C0280153E0440CBD
:10169000551C5A95E1F74A0C5B1CC2010E94A70534
:1016A0004C01C7010E94A7058816990614F6073257
:1016B00011050CF004CF0F5F1F4FCF59DB4F19837B
:1016C0000883C156D44033E0000F111F3A95E1F76B
:1016D000B701C501800F911F1ECF8DEAE82E81E072
:1016E000F82E17FD08C0780193E0EE0CFF1C9A95C8
:1016F000E1F7EA0CFB1C6EE272E0C7010E941817CA
:10170000892B09F449CE17FD08C001501109CF59A2
:10171000DB4F19830883C156D440789CC001799C63
:10172000900D1124B701E1E9F1E0EC0FFD1F8E0FE0
:101730009F1F0E942117FFEF8F1A9F0A22CE9BB195
:101740009F70892B8BB95B9A85E08A95F1F7000031
:101750005B9887EC90E00197F1F700C000000895D6
:10176000CF93C82F662359F05A9A8C2F807F0E94FE
:101770009F0B8C2F8295807FCF910C949F0B5A9852
:10178000F4CF0F931F93CF938C01F801C1918F0178
:10179000C11104C0CF911F910F9108955A9A8C2FB7
:1017A000807F0E949F0B8C2F8295807F0E949F0BD1
:1017B000ECCF5A9880E00E949F0B80E10E949F0B23
:1017C0008FE39FE10197F1F700C0000008951F9299
:1017D0000F920FB60F9211248F939F93AF93BF93E5
:1017E0008091460290914702A0914802B09149022F
:1017F0000196A11DB11D8093460290934702A093CC
:101800004802B0934902BF91AF919F918F910F9081
:101810000FBE0F901F901895CF93DF93CDB7DEB713
:10182000A5970FB6F894DEBF0FBECDBF80918100A3
:101830008B608093810089EF90E090938900809382
:10184000880080916F00826080936F007894529A34
:10185000539A8AB1806F8AB92FEF80E792E02150C6
:1018600080409040E1F700C0000080E30E949F0BA1
:10187000EFE1FEE43197F1F700C0000080E30E9441
:101880009F0B87E592E00197F1F700C0000080E32D
:101890000E949F0BE7E5F2E03197F1F700C00000EE
:1018A00080E20E949F0B87E592E00197F1F700C06C
:1018B000000060E088E20E94B00B60E08CE00E94D3
:1018C000B00B0E94D90B60E086E00E94B00B209A1A
:1018D000219A229A239A249A3898409A3998419AC0
:1018E0003A98429A3B98439A3C98449A83EC91E008
:1018F0000E94C10B68EE73E080E090E00E94F2006D
:101900000E94D90BCC24C394D12C35E0732E45E032
:10191000A42EB12C85E0E2E0F1E0DE019196019089
:101920000D928A95E1F785E0E2E0F1E0DE011196A3
:1019300001900D928A95E1F7FE01B19610E000E06A
:10194000819195B1A60101C0440F8A95EAF7642EF2
:10195000842F8095892385B9DE011196F12CE12C25
:101960008D9126B1882E30E002C0359527958A9555
:10197000E2F720FD56C064E170E080E090E00E9454
:10198000F200960102C0220F331F8A94E2F786B15B
:1019900090E082239323892BD1F364E170E080E00F
:1019A00090E00E94F20085B1682A65B8709EC0017F
:1019B000719E900D11248E0D9F1DB5010E94DA16A7
:1019C000FC010091000110910101769E9001779E2B
:1019D000300D112401301105B1F5E20FF31FEE0FA8
:1019E000FF1FE75CFE4FE080F1806EEC71E0C70105
:1019F0000E941817892B71F510924502109244022B
:101A000010924A020E94D90B84ED91E00E94C10B12
:101A100064EF71E080E090E00E94F2000E94D90B38
:101A200079CF9FEFE91AF90A25E0E216F10409F0EF
:101A300097CF85B1842B85B90F5F1F4F05301105F6
:101A400009F07ECF67CFE20FF31FEE0FFF1FE95FB4
:101A5000FE4FC9CF6CED71E0C7010E941817892BAA
:101A6000C1F48091440290914502181619060CF0B9
:101A700051CF01979093450280934402865B9D4F1E
:101A8000FC0110820E94D90B8AE492E00E94C10BF3
:101A900041CF66EE71E0C7010E941817892B09F546
:101AA00082E090E00130110511F081E090E0909328
:101AB0000101809300010E94D90B80910001909157
:101AC0000101019759F485EB91E00E94C10B64EF8D
:101AD00071E080E090E00E94F200D4CF8CEB91E0C6
:101AE000F4CF61EF71E0C7010E9418170091440222
:101AF00010914502892B29F5101611060CF00ACF1A
:101B0000CE0101960E9465090E94D90B60E080E831
:101B10000E94B00B8AE492E00E94C10B60E080EC6E
:101B20000E94B00B81EF91E00E94C10BCE010196A3
:101B30000E94C10B109245021092440210924A0278
:101B4000E9CEF70101900020E9F73197EE19FF097E
:101B5000E00FF11F709798F4B7018AE492E00E94B9
:101B60000217F70101900020E9F73197EE19FF09FC
:101B70000E0F1F1F109345020093440283CF0E9453
:101B8000D90B83EF91E00E94C10B68EE73E080E017
:101B900090E0A1CFAFE0B0E0E0EDFDE00C942B11C0
:101BA0006C011B015A01FC0117821682838181FF9F
:101BB00048C39E012F5F3F4F4901F6019381F10118
:101BC00093FD859193FF81911F01882309F4E7C25A
:101BD000853239F493FD859193FF81911F01853200
:101BE00039F4B60190E00E94801235015301E5CF2F
:101BF000F12C512C00E0003238F48B3209F190F4D2
:101C00008032F9F0833209F107FD34C020ED280F4E
:101C10002A3020F506FF1BC0FAE0FF9E200D11249C
:101C2000F22E05C08D3279F0803371F70160F10139
:101C300093FD859193FF81911F018111DCCF1AC023
:101C400002600460F4CF0860F2CF0061F0CF3AE0A8
:101C5000539E200D1124522E0062E9CF8E3221F4C2
:101C600006FD9DC20064E3CF8C3611F40068DFCF1F
:101C70008836E9F29BEB980F933008F05FC0006163
:101C8000805E06FD02C046E0F42E102F1F738536DD
:101C900009F05BC0106417FF61C08F2D9BE39F1597
:101CA00008F48BE344244394480E27E03501F4E024
:101CB0006F0E711CF5016081718182819381042D09
:101CC000A4010E9466115C01F981FC87F0FF03C04A
:101CD0000DE2F3FF07C00BE211FD04C0012F0470F9
:101CE00012FD00E22C852C70E22E09F457C0011180
:101CF000ABC2F3E0E12CF515A0F483E0E52CE81A83
:101D000013FD08C0B60180E290E00E948012EA94C0
:101D1000E110F8CF002329F0B601802F90E00E9457
:101D200080123C8528E6A22E20E0B22E33FD04C0AE
:101D30009CE6A92E90E0B92E107122C09BE9980F65
:101D4000933008F033C10F7E9CCF863611F41068B3
:101D5000A2CFFF2009F49FCFFA949DCFE7E02F2D6B
:101D6000EF1518F427E037E0F32E412C9FCF111127
:101D70008052B60190E00E9480128FEFA81AB80A34
:101D8000F50184918111F3CFEE2009F42FCFB60134
:101D900080E290E00E948012EA94F6CF17FF6FC0B5
:101DA0004A0CFC85F4FF04C08A81813309F44A940B
:101DB00014140CF086C028E0241510F488E0482E96
:101DC00085E090E017FF06C0C501B7FE02C090E0B5
:101DD00080E0019601110196FF2031F02F2D30E0B7
:101DE0002F5F3F4F820F931F5816190619F014F0FA
:101DF000E52CE81A812F897011F4E11067C00023E7
:101E000029F0B601802F90E00E94801213FD02C0DD
:101E1000E11063C017FF7CC08501B7FE02C010E06F
:101E200000E0C501841991092C016F2D70E0EE27A7
:101E3000FF27E61BF70BFF87EE870F3F100729F4FC
:101E4000B6018EE290E00E948012A016B1060CF45A
:101E50004BC0401651060CF047C0F501E01BF10BDA
:101E6000E80DF91D8181015011092E853F8502176A
:101E70001307E4F1B60190E00E948012DECF16FD58
:101E80009FCFEF2DF0E0EA15FB0534F03CEFA316F1
:101E90003FEFB3060CF010683296E80DF91D01C053
:101EA000FA94FF2019F082918033D1F317FF88CF85
:101EB000442443944F0CFA141B0431F02CF0FA180C
:101EC0007FCF442443947CCFF12C7ACFB60180E2BB
:101ED00090E00E948012EA9490CFB60180E390E0F7
:101EE0000E948012EA9494CF80E3BDCFA016B10681
:101EF00041F49A81963350F4953319F43C8534FFBC
:101F000005C0B60190E00E9480123ECF81E3F9CF78
:101F10008A81813319F09C859F7E9C87B60190E071
:101F20000E948012FF20A9F0B6018EE290E00E948C
:101F30008012F394F394E2E001E00E0FE80DF92D26
:101F4000F11D8081B60190E00E948012E02F0F11F8
:101F5000F3CF85E690E014FF02C085E490E0B6017F
:101F60000E948012B7FC06C0A114B104C1F4EC8534
:101F7000E4FF15C0B194A194B1088DE2B60190E0E0
:101F80000E94801280E32AE0A216B10454F4B60144
:101F900090E00E948012B601C501C096B4CF8BE2DA
:101FA000EDCF8F5FFAE0AF1AB108EDCF8336C9F0FD
:101FB000833771F1833509F05BC03501F2E06F0EB4
:101FC000711CF501A080B1806F2D70E006FD02C08C
:101FD0006FEF7FEFC5010E943E129D878C870068DE
:101FE0000DC0350132E0630E711CF50180818983DB
:101FF00021E030E03D872C8754010F7703FD06C0B8
:102000002C853D855216130609F0A8F4E52C2BC04B
:10201000350132E0630E711CF501A080B1806F2D97
:1020200070E006FD02C06FEF7FEFC5010E944E1207
:102030009D878C87E2CFB60180E290E00E948012FB
:102040005A94DECFF50107FD859107FF81915F016D
:10205000B60190E00E948012E110EA948C859D8583
:1020600001979D878C87EC85FD85EF2B59F78CCEEA
:10207000843619F0893609F074C0350107FF66C04F
:10208000F4E06F0E711CF501608171818281938192
:10209000102F1F7697FF08C09095809570956195D9
:1020A0007F4F8F4F9F4F10682AE030E0A4010E94BD
:1020B000B012A82EA818BA2C012F16FF0AC00E7F46
:1020C000AF1438F414FF04C012FD02C0012F0E7EBD
:1020D000BF2C04FF8EC0FE01EA0DF11D808180330C
:1020E00009F080C0097EF02FF870EF2E03FD90C03C
:1020F00000FF8AC0FA2CB51410F4F50CFB1804FF8D
:102100008DC0B60180E390E00E94801202FF09C0FA
:1021100088E790E001FF02C088E590E0B6010E94E8
:102120008012AF1408F486C0AA940A2D10E00F5F45
:102130001F4F080D191DF80182918F01B60190E023
:102140000E94801280169106B1F71ECEF2E06F0E4B
:10215000711CF50160817181072E000C880B990BB1
:1021600097CF102F8537A9F41F7E2AE030E0350184
:1021700017FF2FC0F4E06F0E711CF50160817181B3
:1021800082819381A4010E94B012A82EA8181F7703
:1021900092CF197F8F36D1F048F4883591F0F6014F
:1021A000868197812F96E2E10C944711803739F0B0
:1021B0008837A9F714FD146020E130E0D8CF106112
:1021C000F9CF04FD166020E132E0D1CF28E030E005
:1021D000CECFF2E06F0E711CF5016081718190E04D
:1021E00080E0D0CF02FD02C0B3947DCFB394B3940E
:1021F0007ACF802F867809F476CFF6CFB60180E2C9
:1022000090E00E948012B394B514C0F3E12C77CF14
:10221000E52CEB18B51408F472CFF8CF802F867830
:1022200009F47FCF8BE201FF80E207FD8DE2B6016A
:1022300090E075CFB60180E390E00E948012FA949E
:1022400070CF8FEF9FEFAECF24E0E12C251508F083
:1022500063CD84E053CD2F923F924F925F926F9265
:102260007F928F929F92AF92BF92CF92DF92EF9226
:10227000FF920F931F93CF93DF93CDB7DEB7CA1BA7
:10228000DB0B0FB6F894DEBF0FBECDBF09942A88D2
:10229000398848885F846E847D848C849B84AA847A
:1022A000B984C884DF80EE80FD800C811B81AA8107
:1022B000B981CE0FD11D0FB6F894DEBF0FBECDBFD2
:1022C000ED010895662777270C940E13283008F047
:1022D00027E03327DA01990F311D87FD91600096C1
:1022E0006105710539F432602E5F3D9330E32A9524
:1022F000E1F708959F3F30F080387105610509F0DE
:102300003C5F3C5F3D93913008F08068911DDF9306
:10231000CF931F930F93FF92EF92192F987F96956B
:10232000E92F96959695E90FFF27E653FF4F9927DA
:102330003327EE24FF24A701E701059008940794B2
:1023400028F4360FE71EF81E491F511D660F771F30
:10235000881F991F0694A1F70590079428F4E70EAB
:10236000F81E491F561FC11D770F881F991F661F32
:102370000694A1F70590079428F4F80E491F561FFC
:10238000C71FD11D880F991F661F771F0694A1F7DD
:102390000590079420F4490F561FC71FD81F990FA7
:1023A000661F771F881F0694A9F7849110951770F0
:1023B00041F0D695C79557954795F794E7941A95A8
:1023C000C1F7E0E7F0E068941590159135916591BB
:1023D000959105907FE27395E118F10A430B560B36
:1023E000C90BD009C0F7E10CF11E431F561FC91FCE
:1023F000D01D7EF4703311F48A95E6CFE894015035
:1024000030F0080F0AF40027021708F4202F239554
:10241000022F7A3328F079E37D932A95E9F710C0EB
:102420007D932A9589F60694979567953795179524
:102430001794E118F10A430B560BC90BD00998F019
:1024400023957E9173957A3308F070E37C93201383
:10245000B8F77E9170617D9330F0839571E37D9341
:1024600070E32A95E1F71124EF90FF900F911F91EF
:10247000CF91DF91992787FD90950895FC010590F4
:10248000615070400110D8F7809590958E0F9F1F76
:1024900008954AE552E00E9459120895FC016150E6
:1024A000704001900110D8F7809590958E0F9F1F76
:1024B0000895FA01A191B081009719F41097E1F005
:1024C000CD01DC01CD010D90002011F4C00113C03D
:1024D000FB012191222319F02015D9F7F3CFFB013D
:1024E0002191201519F41E92119606C02223C1F7DE
:1024F0000D900020A1F7D001FA01A193B0830895B7
:102500000F931F93CF93DF93182F092FEB018B812C
:1025100081FD09C01FEF0FEF812F902FDF91CF9129
:102520001F910F91089582FF14C02E813F818C81ED
:102530009D81281739073CF4E881F981CF01019684
:102540009983888310838E819F8101969F838E83D8
:10255000E3CFE885F985812F0995892BA1F3DACF9F
:10256000FA01AA27283051F1203181F1E8946F93C4
:102570006E7F6E5F7F4F8F4F9F4FAF4FB1E03ED06A
:10258000B4E03CD0670F781F891F9A1FA11D680F08
:10259000791F8A1F911DA11D6A0F711D811D911D3B
:1025A000A11D20D009F468943F912AE0269F1124B0
:1025B0003019305D3193DEF6CF010895462F477014
:1025C000405D4193B3E00FD0C9F7F6CF462F4F706F
:1025D000405D4A3318F0495D31FD4052419302D0CD
:1025E000A9F7EACFB4E0A695979587957795679573
:1025F000BA95C9F700976105710508959B01AC0173
:102600000A2E06945795479537952795BA95C9F799
:10261000620F731F841F951FA01D0895B0E0A0E0F6
:10262000E4E1F3E10C9431115C017B01611571056A
:1026300019F0DB018D939C9385010F5F1F4FF5010E
:10264000D0818D2F90E00E945E146C01892BB9F52A
:10265000DD32B9F50F5F1F4FD5011196DC91C1E056
:102660005801F1E0AF1AB10843E050E062E771E0D1
:10267000C5010E946714892B69F5680182E0C80EC4
:10268000D11C45E050E06DE671E0C6010E94671480
:10269000892B21F4680197E0C90ED11CE114F104E3
:1026A00019F0D701CD92DC9260E070E080E89FEFF6
:1026B000C111FFC060E070E080E89FE7FAC05801F8
:1026C000BBCFDB3229F485010E5F1F4FF501D181AD
:1026D000C0E0C6CF43E050E06AE671E0C5010E9469
:1026E0006714892BE9F0F80110E000E020E030E009
:1026F000A9015F01B0ED8B2E8D0E89E08815C8F120
:102700009C2E689491F88C2F8870C2FF16C081119E
:1027100002C00F5F1F4F3196D501DC91C92DE9CF63
:10272000E114F10429F00E5F1F4FF70111830083BC
:1027300060E070E080EC9FE7BCC0882311F001509E
:102740001109A5E0B0E00E94A6159B01AC01220F83
:10275000331F441F551F280D311D411D511D2839A0
:1027600099E93907490799E15907A8F2C6609C2EF3
:10277000D2CFAEEF8A1206C0C3FD3CC09C2E689437
:1027800093F8C9CFDF7DD534A9F580818D3239F436
:10279000C061DF011296818162E070E006C0DF0156
:1027A0008B32C1F3119661E070E080535D01A61A8F
:1027B000B70A8A30F8F4E0E8CE16ECE0DE065CF406
:1027C000B601660F771F660F771FC60ED71ECC0C9B
:1027D000DD1CC80ED11C5D01FFEFAF1ABF0A8C9142
:1027E00080538A30A8F1C4FF03C0D194C194D108AA
:1027F0000C0D1D1DC1FF09C0E114F10431F081E091
:10280000A81AB108D701AD92BC92CA01B9010E94C1
:102810008414C370C33009F490584B015C0120E06C
:1028200030E0A9010E947F14882309F440C0C1EA66
:10283000D1E017FF05C0119501951109C9E8D1E054
:102840006E01B8E1CB1AD10880E2E82EF12C0FC05E
:10285000D501B1CFFE0125913591459154910E19C5
:102860001F09C501B4010E94E5144B015C01D501AB
:10287000C4010E151F0574F72497F594E794CC1640
:10288000DD06A9F78A2F880F8B2F881F8F3F49F00D
:1028900020E030E0A901C501B4010E947F1481113C
:1028A00006C082E290E090935D0280935C02C501D5
:1028B000B401CDB7DEB7ECE00C944D1191110C943E
:1028C0005215803219F089508550C8F70895FB01E0
:1028D000DC014150504088F08D9181341CF08B35E3
:1028E0000CF4805E659161341CF06B350CF4605E15
:1028F000861B611171F3990B0895881BFCCF0E9410
:10290000C11408F481E00895E89409C097FB3EF4EF
:1029100090958095709561957F4F8F4F9F4F99232C
:10292000A9F0F92F96E9BB279395F69587957795AA
:102930006795B795F111F8CFFAF4BB0F11F460FF6A
:102940001BC06F5F7F4F8F4F9F4F16C0882311F0C2
:1029500096E911C0772321F09EE8872F762F05C0D6
:10296000662371F096E8862F70E060E02AF09A9571
:10297000660F771F881FDAF7880F9695879597F966
:102980000895990F0008550FAA0BE0E8FEEF161600
:102990001706E807F907C0F012161306E407F50753
:1029A00098F0621B730B840B950B39F40A2661F0C7
:1029B000232B242B252B21F408950A2609F4A1406A
:1029C000A6958FEF811D811D08950E94F8140C9427
:1029D0006C150E945E1538F00E94651520F0952355
:1029E00011F00C9455150C945B1511240C94A01542
:1029F0000E947D1570F3959FC1F3950F50E0551F10
:102A0000629FF001729FBB27F00DB11D639FAA2743
:102A1000F00DB11DAA1F649F6627B00DA11D661F92
:102A2000829F2227B00DA11D621F739FB00DA11DB3
:102A3000621F839FA00D611D221F749F3327A00D6D
:102A4000611D231F849F600D211D822F762F6A2F09
:102A500011249F5750409AF0F1F088234AF0EE0F6E
:102A6000FF1FBB1F661F771F881F91505040A9F79B
:102A70009E3F510580F00C9455150C94A0155F3FB6
:102A8000E4F3983ED4F3869577956795B795F795D7
:102A9000E7959F5FC1F7FE2B880F911D969587954F
:102AA00097F9089599278827089597F99F6780E8EF
:102AB00070E060E008959FEF80EC089500240A9490
:102AC0001616170618060906089500240A94121609
:102AD0001306140605060895092E0394000C11F43C
:102AE000882352F0BB0F40F4BF2B11F460FF04C0E9
:102AF0006F5F7F4F8F4F9F4F089557FD9058440F42
:102B0000551F59F05F3F71F04795880F97FB991F4C
:102B100061F09F3F79F08795089512161306140609
:102B2000551FF2CF4695F1DF08C016161706180696
:102B3000991FF1CF86957105610508940895E89471
:102B4000BB2766277727CB0197F908950E94B11517
:102B5000A59F900DB49F900DA49F800D911D1124F1
:102B60000895A29FB001B39FC001A39F700D811D66
:102B70001124911DB29F700D811D1124911D089586
:102B80005058BB27AA270E94D8150C946C150E9498
:102B90005E1538F00E94651520F039F49F3F19F456
:102BA00026F40C945B150EF4E095E7FB0C94551598
:102BB000E92F0E947D1558F3BA176207730784073F
:102BC000950720F079F4A6F50C949F150EF4E09586
:102BD0000B2EBA2FA02D0B01B90190010C01CA01D7
:102BE000A0011124FF27591B99F0593F50F4503E82
:102BF00068F11A16F040A22F232F342F4427585F74
:102C0000F3CF469537952795A795F0405395C9F78B
:102C10007EF41F16BA0B620B730B840BBAF0915043
:102C2000A1F0FF0FBB1F661F771F881FC2F70EC0E2
:102C3000BA0F621F731F841F48F4879577956795B5
:102C4000B795F7959E3F08F0B0CF9395880F08F0A1
:102C50009927EE0F9795879508950E9441160C9439
:102C60006C150E94651558F00E945E1540F029F41D
:102C70005F3F29F00C94551551110C94A0150C943C
:102C80005B150E947D1568F39923B1F3552391F3E9
:102C9000951B550BBB27AA2762177307840738F0CB
:102CA0009F5F5F4F220F331F441FAA1FA9F335D028
:102CB0000E2E3AF0E0E832D091505040E695001CDC
:102CC000CAF72BD0FE2F29D0660F771F881FBB1F96
:102CD000261737074807AB07B0E809F0BB0B802D74
:102CE000BF01FF2793585F4F3AF09E3F510578F0A0
:102CF0000C9455150C94A0155F3FE4F3983ED4F363
:102D0000869577956795B795F7959F5FC9F7880F73
:102D1000911D9695879597F90895E1E0660F771FC5
:102D2000881FBB1F621773078407BA0720F0621B56
:102D3000730B840BBA0BEE1F88F7E09508950E9481
:102D4000A6166894B1110C94A01508950E948515DB
:102D500088F09F5798F0B92F9927B751B0F0E1F05C
:102D6000660F771F881F991F1AF0BA95C9F714C00C
:102D7000B13091F00E949F15B1E008950C949F1519
:102D8000672F782F8827B85F39F0B93FCCF3869545
:102D900077956795B395D9F73EF4909580957095A2
:102DA00061957F4F8F4F9F4F08950E94C11408F483
:102DB0008FEF089597FB072E16F4009407D077FD48
:102DC00009D00E94EE1607FC05D03EF4909581953F
:102DD0009F4F0895709561957F4F0895AA1BBB1B67
:102DE00051E107C0AA1FBB1FA617B70710F0A61B0B
:102DF000B70B881F991F5A95A9F780959095BC012C
:102E0000CD010895FB01DC010D900020E9F7119739
:102E100001900D920020E1F70895FC018191861741
:102E200021F08823D9F7992708953197CF01089584
:102E3000FB01DC018D91019080190110D9F3990BF0
:102E40000895FB01DC0101900D920020E1F7089547
:102E5000AEE0B0E0EEE2F7E10C9439110D891E8985
:102E600086E08C831A8309838FEF9FE79E838D838F
:102E7000AE01475E5F4F6F89788DCE0101960E944B
:102E8000CA0D2F813885020F131FF80110822E966C
:0A2E9000E4E00C945511F894FFCF14
:102E9A00010000010203048001BA01C1010002021B
:102EAA00020402060208020A0238022E02AE019544
:102EBA00010C02120218021E0224022902CE01DCAF
:102ECA00013002F101E60132028001BA01C10100BA
:102EDA000202020402060208020A0238029B019D4B
:102EEA000197019901130219021F023A023F02CE09
:102EFA0001DC013002F101E60132026C6E007371ED
:102F0A007274006661637400657870006C6F673173
:102F1A0030006173696E0061636F73006174616E82
:102F2A00006D6F64005E002A002F002B002D0078D0
:102F3A000028292B2D2A2F5E210020090A002900AA
:102F4A00252E3666004D6F64652031004D6F64652D
:102F5A0020320043616C63756C61746F7200436C5C
:102F6A0065617200436C6561726564004261636BFE
:102F7A007370616365004D6F646520736869667478
:102F8A00003D004275666665722046756C6C2100CC
:102F9A003300340035003600370038006661637448
:102FAA0028006173696E280061636F732800617479
:102FBA00616E28006D6F6428006C6F6731302800DD
:102FCA002E00332E31343135390065787028006C83
:042FDA006E2800005D
:00000001FF
